{
  "contractName": "LearningTokenICO",
  "abi": [
    {
      "inputs": [
        {
          "internalType": "address payable",
          "name": "_depositAddress",
          "type": "address"
        }
      ],
      "stateMutability": "nonpayable",
      "type": "constructor"
    },
    {
      "anonymous": false,
      "inputs": [
        {
          "indexed": true,
          "internalType": "address",
          "name": "tokenOwner",
          "type": "address"
        },
        {
          "indexed": true,
          "internalType": "address",
          "name": "spender",
          "type": "address"
        },
        {
          "indexed": false,
          "internalType": "uint256",
          "name": "tokens",
          "type": "uint256"
        }
      ],
      "name": "Approval",
      "type": "event"
    },
    {
      "anonymous": false,
      "inputs": [
        {
          "indexed": false,
          "internalType": "address",
          "name": "investor",
          "type": "address"
        },
        {
          "indexed": false,
          "internalType": "uint256",
          "name": "value",
          "type": "uint256"
        },
        {
          "indexed": false,
          "internalType": "uint256",
          "name": "tokens",
          "type": "uint256"
        }
      ],
      "name": "Invest",
      "type": "event"
    },
    {
      "anonymous": false,
      "inputs": [
        {
          "indexed": true,
          "internalType": "address",
          "name": "from",
          "type": "address"
        },
        {
          "indexed": true,
          "internalType": "address",
          "name": "to",
          "type": "address"
        },
        {
          "indexed": false,
          "internalType": "uint256",
          "name": "tokens",
          "type": "uint256"
        }
      ],
      "name": "Transfer",
      "type": "event"
    },
    {
      "inputs": [],
      "name": "admin",
      "outputs": [
        {
          "internalType": "address",
          "name": "",
          "type": "address"
        }
      ],
      "stateMutability": "view",
      "type": "function"
    },
    {
      "inputs": [
        {
          "internalType": "address",
          "name": "tokenOwner",
          "type": "address"
        },
        {
          "internalType": "address",
          "name": "spender",
          "type": "address"
        }
      ],
      "name": "allowance",
      "outputs": [
        {
          "internalType": "uint256",
          "name": "",
          "type": "uint256"
        }
      ],
      "stateMutability": "view",
      "type": "function"
    },
    {
      "inputs": [
        {
          "internalType": "address",
          "name": "spender",
          "type": "address"
        },
        {
          "internalType": "uint256",
          "name": "tokens",
          "type": "uint256"
        }
      ],
      "name": "approve",
      "outputs": [
        {
          "internalType": "bool",
          "name": "success",
          "type": "bool"
        }
      ],
      "stateMutability": "nonpayable",
      "type": "function"
    },
    {
      "inputs": [
        {
          "internalType": "address",
          "name": "tokenOwner",
          "type": "address"
        }
      ],
      "name": "balanceOf",
      "outputs": [
        {
          "internalType": "uint256",
          "name": "balance",
          "type": "uint256"
        }
      ],
      "stateMutability": "view",
      "type": "function"
    },
    {
      "inputs": [
        {
          "internalType": "address",
          "name": "",
          "type": "address"
        }
      ],
      "name": "balances",
      "outputs": [
        {
          "internalType": "uint256",
          "name": "",
          "type": "uint256"
        }
      ],
      "stateMutability": "view",
      "type": "function"
    },
    {
      "inputs": [],
      "name": "decimals",
      "outputs": [
        {
          "internalType": "uint256",
          "name": "",
          "type": "uint256"
        }
      ],
      "stateMutability": "view",
      "type": "function"
    },
    {
      "inputs": [],
      "name": "depositAddress",
      "outputs": [
        {
          "internalType": "address payable",
          "name": "",
          "type": "address"
        }
      ],
      "stateMutability": "view",
      "type": "function"
    },
    {
      "inputs": [],
      "name": "founder",
      "outputs": [
        {
          "internalType": "address",
          "name": "",
          "type": "address"
        }
      ],
      "stateMutability": "view",
      "type": "function"
    },
    {
      "inputs": [],
      "name": "hardCap",
      "outputs": [
        {
          "internalType": "uint256",
          "name": "",
          "type": "uint256"
        }
      ],
      "stateMutability": "view",
      "type": "function"
    },
    {
      "inputs": [],
      "name": "icoState",
      "outputs": [
        {
          "internalType": "enum LearningTokenICO.State",
          "name": "",
          "type": "uint8"
        }
      ],
      "stateMutability": "view",
      "type": "function"
    },
    {
      "inputs": [],
      "name": "maxInvesment",
      "outputs": [
        {
          "internalType": "uint256",
          "name": "",
          "type": "uint256"
        }
      ],
      "stateMutability": "view",
      "type": "function"
    },
    {
      "inputs": [],
      "name": "minInvesment",
      "outputs": [
        {
          "internalType": "uint256",
          "name": "",
          "type": "uint256"
        }
      ],
      "stateMutability": "view",
      "type": "function"
    },
    {
      "inputs": [],
      "name": "name",
      "outputs": [
        {
          "internalType": "string",
          "name": "",
          "type": "string"
        }
      ],
      "stateMutability": "view",
      "type": "function"
    },
    {
      "inputs": [],
      "name": "raisedAmount",
      "outputs": [
        {
          "internalType": "uint256",
          "name": "",
          "type": "uint256"
        }
      ],
      "stateMutability": "view",
      "type": "function"
    },
    {
      "inputs": [],
      "name": "saleEnd",
      "outputs": [
        {
          "internalType": "uint256",
          "name": "",
          "type": "uint256"
        }
      ],
      "stateMutability": "view",
      "type": "function"
    },
    {
      "inputs": [],
      "name": "saleStart",
      "outputs": [
        {
          "internalType": "uint256",
          "name": "",
          "type": "uint256"
        }
      ],
      "stateMutability": "view",
      "type": "function"
    },
    {
      "inputs": [],
      "name": "symbol",
      "outputs": [
        {
          "internalType": "string",
          "name": "",
          "type": "string"
        }
      ],
      "stateMutability": "view",
      "type": "function"
    },
    {
      "inputs": [],
      "name": "tokenTradeStart",
      "outputs": [
        {
          "internalType": "uint256",
          "name": "",
          "type": "uint256"
        }
      ],
      "stateMutability": "view",
      "type": "function"
    },
    {
      "inputs": [],
      "name": "totalSupply",
      "outputs": [
        {
          "internalType": "uint256",
          "name": "",
          "type": "uint256"
        }
      ],
      "stateMutability": "view",
      "type": "function"
    },
    {
      "stateMutability": "payable",
      "type": "receive"
    },
    {
      "inputs": [],
      "name": "halt",
      "outputs": [],
      "stateMutability": "nonpayable",
      "type": "function"
    },
    {
      "inputs": [],
      "name": "resume",
      "outputs": [],
      "stateMutability": "nonpayable",
      "type": "function"
    },
    {
      "inputs": [
        {
          "internalType": "address payable",
          "name": "_newDepositAddress",
          "type": "address"
        }
      ],
      "name": "setDepositAddress",
      "outputs": [],
      "stateMutability": "nonpayable",
      "type": "function"
    },
    {
      "inputs": [],
      "name": "getCurrentState",
      "outputs": [
        {
          "internalType": "enum LearningTokenICO.State",
          "name": "",
          "type": "uint8"
        }
      ],
      "stateMutability": "view",
      "type": "function"
    },
    {
      "inputs": [],
      "name": "invest",
      "outputs": [
        {
          "internalType": "bool",
          "name": "",
          "type": "bool"
        }
      ],
      "stateMutability": "payable",
      "type": "function"
    },
    {
      "inputs": [
        {
          "internalType": "address",
          "name": "to",
          "type": "address"
        },
        {
          "internalType": "uint256",
          "name": "tokens",
          "type": "uint256"
        }
      ],
      "name": "transfer",
      "outputs": [
        {
          "internalType": "bool",
          "name": "success",
          "type": "bool"
        }
      ],
      "stateMutability": "nonpayable",
      "type": "function"
    },
    {
      "inputs": [
        {
          "internalType": "address",
          "name": "from",
          "type": "address"
        },
        {
          "internalType": "address",
          "name": "to",
          "type": "address"
        },
        {
          "internalType": "uint256",
          "name": "tokens",
          "type": "uint256"
        }
      ],
      "name": "transferFrom",
      "outputs": [
        {
          "internalType": "bool",
          "name": "success",
          "type": "bool"
        }
      ],
      "stateMutability": "nonpayable",
      "type": "function"
    },
    {
      "inputs": [],
      "name": "burn",
      "outputs": [
        {
          "internalType": "bool",
          "name": "",
          "type": "bool"
        }
      ],
      "stateMutability": "nonpayable",
      "type": "function"
    }
  ],
  "bytecode": "0x60806040526040518060400160405280600d81526020017f4c6561726e696e67546f6b656e000000000000000000000000000000000000008152506000908051906020019062000051929190620002a0565b506040518060400160405280600481526020017f4c524e5400000000000000000000000000000000000000000000000000000000815250600190805190602001906200009f929190620002a0565b50601260025566038d7ea4c68000600955681043561a8829300000600a5542600c5562093a8042620000d2919062000389565b600d5562093a80600d54620000e8919062000389565b600e5567016345785d8a0000600f55674563918244f400006010553480156200011057600080fd5b5060405162001eb038038062001eb0833981810160405281019062000136919062000450565b620f424060038190555033600460006101000a81548173ffffffffffffffffffffffffffffffffffffffff021916908373ffffffffffffffffffffffffffffffffffffffff16021790555060035460056000600460009054906101000a900473ffffffffffffffffffffffffffffffffffffffff1673ffffffffffffffffffffffffffffffffffffffff1673ffffffffffffffffffffffffffffffffffffffff1681526020019081526020016000208190555080600860006101000a81548173ffffffffffffffffffffffffffffffffffffffff021916908373ffffffffffffffffffffffffffffffffffffffff16021790555033600760006101000a81548173ffffffffffffffffffffffffffffffffffffffff021916908373ffffffffffffffffffffffffffffffffffffffff1602179055506000601160006101000a81548160ff0219169083600381111562000294576200029362000482565b5b02179055505062000516565b828054620002ae90620004e0565b90600052602060002090601f016020900481019282620002d257600085556200031e565b82601f10620002ed57805160ff19168380011785556200031e565b828001600101855582156200031e579182015b828111156200031d57825182559160200191906001019062000300565b5b5090506200032d919062000331565b5090565b5b808211156200034c57600081600090555060010162000332565b5090565b6000819050919050565b7f4e487b7100000000000000000000000000000000000000000000000000000000600052601160045260246000fd5b6000620003968262000350565b9150620003a38362000350565b9250827fffffffffffffffffffffffffffffffffffffffffffffffffffffffffffffffff03821115620003db57620003da6200035a565b5b828201905092915050565b600080fd5b600073ffffffffffffffffffffffffffffffffffffffff82169050919050565b60006200041882620003eb565b9050919050565b6200042a816200040b565b81146200043657600080fd5b50565b6000815190506200044a816200041f565b92915050565b600060208284031215620004695762000468620003e6565b5b6000620004798482850162000439565b91505092915050565b7f4e487b7100000000000000000000000000000000000000000000000000000000600052602160045260246000fd5b7f4e487b7100000000000000000000000000000000000000000000000000000000600052602260045260246000fd5b60006002820490506001821680620004f957607f821691505b6020821081141562000510576200050f620004b1565b5b50919050565b61198a80620005266000396000f3fe6080604052600436106101a05760003560e01c80635ed7ca5b116100ec578063c10b93581161008a578063dd62ed3e11610064578063dd62ed3e146105c2578063e8b5e51f146105ff578063f851a4401461061d578063fb86a40414610648576101b0565b8063c10b935814610541578063c59ee1dc1461056c578063cc9ba58314610597576101b0565b806395d89b41116100c657806395d89b4114610485578063a9059cbb146104b0578063ab0bcc41146104ed578063ab18af2714610518576101b0565b80635ed7ca5b1461040657806365d301161461041d57806370a0823114610448576101b0565b806328f833b7116101595780633d7ac9f8116101335780633d7ac9f81461035a57806344df8e701461038557806344f38756146103b05780634d853ee5146103db576101b0565b806328f833b7146102d9578063313ce56714610304578063378aa7011461032f576101b0565b8063046f7da2146101b557806306fdde03146101cc578063095ea7b3146101f757806318160ddd1461023457806323b872dd1461025f57806327e235e31461029c576101b0565b366101b0576101ad610673565b50005b600080fd5b3480156101c157600080fd5b506101ca610880565b005b3480156101d857600080fd5b506101e1610907565b6040516101ee9190611437565b60405180910390f35b34801561020357600080fd5b5061021e600480360381019061021991906114f2565b610995565b60405161022b919061154d565b60405180910390f35b34801561024057600080fd5b50610249610ae0565b6040516102569190611577565b60405180910390f35b34801561026b57600080fd5b5061028660048036038101906102819190611592565b610ae6565b604051610293919061154d565b60405180910390f35b3480156102a857600080fd5b506102c360048036038101906102be91906115e5565b610b0e565b6040516102d09190611577565b60405180910390f35b3480156102e557600080fd5b506102ee610b26565b6040516102fb9190611633565b60405180910390f35b34801561031057600080fd5b50610319610b4c565b6040516103269190611577565b60405180910390f35b34801561033b57600080fd5b50610344610b52565b60405161035191906116c5565b60405180910390f35b34801561036657600080fd5b5061036f610bd5565b60405161037c9190611577565b60405180910390f35b34801561039157600080fd5b5061039a610bdb565b6040516103a7919061154d565b60405180910390f35b3480156103bc57600080fd5b506103c5610c83565b6040516103d291906116c5565b60405180910390f35b3480156103e757600080fd5b506103f0610c96565b6040516103fd91906116ef565b60405180910390f35b34801561041257600080fd5b5061041b610cbc565b005b34801561042957600080fd5b50610432610d43565b60405161043f9190611577565b60405180910390f35b34801561045457600080fd5b5061046f600480360381019061046a91906115e5565b610d49565b60405161047c9190611577565b60405180910390f35b34801561049157600080fd5b5061049a610d92565b6040516104a79190611437565b60405180910390f35b3480156104bc57600080fd5b506104d760048036038101906104d291906114f2565b610e20565b6040516104e4919061154d565b60405180910390f35b3480156104f957600080fd5b50610502610e46565b60405161050f9190611577565b60405180910390f35b34801561052457600080fd5b5061053f600480360381019061053a9190611736565b610e4c565b005b34801561054d57600080fd5b50610556610eea565b6040516105639190611577565b60405180910390f35b34801561057857600080fd5b50610581610ef0565b60405161058e9190611577565b60405180910390f35b3480156105a357600080fd5b506105ac610ef6565b6040516105b99190611577565b60405180910390f35b3480156105ce57600080fd5b506105e960048036038101906105e49190611763565b610efc565b6040516105f69190611577565b60405180910390f35b610607610673565b604051610614919061154d565b60405180910390f35b34801561062957600080fd5b50610632610f83565b60405161063f91906116ef565b60405180910390f35b34801561065457600080fd5b5061065d610fa9565b60405161066a9190611577565b60405180910390f35b6000600160038111156106895761068861164e565b5b610691610b52565b60038111156106a3576106a261164e565b5b146106ad57600080fd5b600f5434101580156106c157506010543411155b6106ca57600080fd5b34600b60008282546106dc91906117d2565b92505081905550600a54600b5411156106f457600080fd5b6000600954346107049190611857565b905080600560003373ffffffffffffffffffffffffffffffffffffffff1673ffffffffffffffffffffffffffffffffffffffff168152602001908152602001600020600082825461075591906117d2565b925050819055508060056000600460009054906101000a900473ffffffffffffffffffffffffffffffffffffffff1673ffffffffffffffffffffffffffffffffffffffff1673ffffffffffffffffffffffffffffffffffffffff16815260200190815260200160002060008282546107cd9190611888565b92505081905550600860009054906101000a900473ffffffffffffffffffffffffffffffffffffffff1673ffffffffffffffffffffffffffffffffffffffff166108fc349081150290604051600060405180830381858888f1935050505015801561083c573d6000803e3d6000fd5b507f4ae4bd7655e0d350876a23cd90c4227b13db560e34435c6a488150a9c844bf5f333483604051610870939291906118bc565b60405180910390a1600191505090565b600760009054906101000a900473ffffffffffffffffffffffffffffffffffffffff1673ffffffffffffffffffffffffffffffffffffffff163373ffffffffffffffffffffffffffffffffffffffff16146108da57600080fd5b6001601160006101000a81548160ff02191690836003811115610900576108ff61164e565b5b0217905550565b6000805461091490611922565b80601f016020809104026020016040519081016040528092919081815260200182805461094090611922565b801561098d5780601f106109625761010080835404028352916020019161098d565b820191906000526020600020905b81548152906001019060200180831161097057829003601f168201915b505050505081565b600081600560003373ffffffffffffffffffffffffffffffffffffffff1673ffffffffffffffffffffffffffffffffffffffff1681526020019081526020016000205410156109e357600080fd5b600082116109f057600080fd5b81600660003373ffffffffffffffffffffffffffffffffffffffff1673ffffffffffffffffffffffffffffffffffffffff16815260200190815260200160002060008573ffffffffffffffffffffffffffffffffffffffff1673ffffffffffffffffffffffffffffffffffffffff168152602001908152602001600020819055508273ffffffffffffffffffffffffffffffffffffffff163373ffffffffffffffffffffffffffffffffffffffff167f8c5be1e5ebec7d5bd14f71427d1e84f3dd0314c0f7b2291e5b200ac8c7c3b92584604051610ace9190611577565b60405180910390a36001905092915050565b60035481565b6000600e54421015610af757600080fd5b610b02848484610faf565b50600190509392505050565b60056020528060005260406000206000915090505481565b600860009054906101000a900473ffffffffffffffffffffffffffffffffffffffff1681565b60025481565b6000600380811115610b6757610b6661164e565b5b601160009054906101000a900460ff166003811115610b8957610b8861164e565b5b1415610b985760039050610bd2565b600c54421015610bab5760009050610bd2565b600c544210158015610bbf5750600d544211155b15610bcd5760019050610bd2565b600290505b90565b600f5481565b600060026003811115610bf157610bf061164e565b5b610bf9610b52565b6003811115610c0b57610c0a61164e565b5b14610c1557600080fd5b600060056000600460009054906101000a900473ffffffffffffffffffffffffffffffffffffffff1673ffffffffffffffffffffffffffffffffffffffff1673ffffffffffffffffffffffffffffffffffffffff168152602001908152602001600020819055506001905090565b601160009054906101000a900460ff1681565b600460009054906101000a900473ffffffffffffffffffffffffffffffffffffffff1681565b600760009054906101000a900473ffffffffffffffffffffffffffffffffffffffff1673ffffffffffffffffffffffffffffffffffffffff163373ffffffffffffffffffffffffffffffffffffffff1614610d1657600080fd5b6003601160006101000a81548160ff02191690836003811115610d3c57610d3b61164e565b5b0217905550565b60105481565b6000600560008373ffffffffffffffffffffffffffffffffffffffff1673ffffffffffffffffffffffffffffffffffffffff168152602001908152602001600020549050919050565b60018054610d9f90611922565b80601f0160208091040260200160405190810160405280929190818152602001828054610dcb90611922565b8015610e185780601f10610ded57610100808354040283529160200191610e18565b820191906000526020600020905b815481529060010190602001808311610dfb57829003601f168201915b505050505081565b6000600e54421015610e3157600080fd5b610e3b8383611235565b506001905092915050565b600c5481565b600760009054906101000a900473ffffffffffffffffffffffffffffffffffffffff1673ffffffffffffffffffffffffffffffffffffffff163373ffffffffffffffffffffffffffffffffffffffff1614610ea657600080fd5b80600860006101000a81548173ffffffffffffffffffffffffffffffffffffffff021916908373ffffffffffffffffffffffffffffffffffffffff16021790555050565b600d5481565b600b5481565b600e5481565b6000600660008473ffffffffffffffffffffffffffffffffffffffff1673ffffffffffffffffffffffffffffffffffffffff16815260200190815260200160002060008373ffffffffffffffffffffffffffffffffffffffff1673ffffffffffffffffffffffffffffffffffffffff16815260200190815260200160002054905092915050565b600760009054906101000a900473ffffffffffffffffffffffffffffffffffffffff1681565b600a5481565b600081600660008673ffffffffffffffffffffffffffffffffffffffff1673ffffffffffffffffffffffffffffffffffffffff16815260200190815260200160002060003373ffffffffffffffffffffffffffffffffffffffff1673ffffffffffffffffffffffffffffffffffffffff16815260200190815260200160002054101561103a57600080fd5b81600560008673ffffffffffffffffffffffffffffffffffffffff1673ffffffffffffffffffffffffffffffffffffffff16815260200190815260200160002054101561108657600080fd5b81600560008673ffffffffffffffffffffffffffffffffffffffff1673ffffffffffffffffffffffffffffffffffffffff16815260200190815260200160002060008282546110d59190611888565b9250508190555081600560008573ffffffffffffffffffffffffffffffffffffffff1673ffffffffffffffffffffffffffffffffffffffff168152602001908152602001600020600082825461112b91906117d2565b9250508190555081600660008673ffffffffffffffffffffffffffffffffffffffff1673ffffffffffffffffffffffffffffffffffffffff16815260200190815260200160002060003373ffffffffffffffffffffffffffffffffffffffff1673ffffffffffffffffffffffffffffffffffffffff16815260200190815260200160002060008282546111be9190611888565b925050819055508273ffffffffffffffffffffffffffffffffffffffff168473ffffffffffffffffffffffffffffffffffffffff167fddf252ad1be2c89b69c2b068fc378daa952ba7f163c4a11628f55a4df523b3ef846040516112229190611577565b60405180910390a3600190509392505050565b600081600560003373ffffffffffffffffffffffffffffffffffffffff1673ffffffffffffffffffffffffffffffffffffffff16815260200190815260200160002054101561128357600080fd5b81600560008573ffffffffffffffffffffffffffffffffffffffff1673ffffffffffffffffffffffffffffffffffffffff16815260200190815260200160002060008282546112d291906117d2565b9250508190555081600560003373ffffffffffffffffffffffffffffffffffffffff1673ffffffffffffffffffffffffffffffffffffffff16815260200190815260200160002060008282546113289190611888565b925050819055508273ffffffffffffffffffffffffffffffffffffffff163373ffffffffffffffffffffffffffffffffffffffff167fddf252ad1be2c89b69c2b068fc378daa952ba7f163c4a11628f55a4df523b3ef8460405161138c9190611577565b60405180910390a36001905092915050565b600081519050919050565b600082825260208201905092915050565b60005b838110156113d85780820151818401526020810190506113bd565b838111156113e7576000848401525b50505050565b6000601f19601f8301169050919050565b60006114098261139e565b61141381856113a9565b93506114238185602086016113ba565b61142c816113ed565b840191505092915050565b6000602082019050818103600083015261145181846113fe565b905092915050565b600080fd5b600073ffffffffffffffffffffffffffffffffffffffff82169050919050565b60006114898261145e565b9050919050565b6114998161147e565b81146114a457600080fd5b50565b6000813590506114b681611490565b92915050565b6000819050919050565b6114cf816114bc565b81146114da57600080fd5b50565b6000813590506114ec816114c6565b92915050565b6000806040838503121561150957611508611459565b5b6000611517858286016114a7565b9250506020611528858286016114dd565b9150509250929050565b60008115159050919050565b61154781611532565b82525050565b6000602082019050611562600083018461153e565b92915050565b611571816114bc565b82525050565b600060208201905061158c6000830184611568565b92915050565b6000806000606084860312156115ab576115aa611459565b5b60006115b9868287016114a7565b93505060206115ca868287016114a7565b92505060406115db868287016114dd565b9150509250925092565b6000602082840312156115fb576115fa611459565b5b6000611609848285016114a7565b91505092915050565b600061161d8261145e565b9050919050565b61162d81611612565b82525050565b60006020820190506116486000830184611624565b92915050565b7f4e487b7100000000000000000000000000000000000000000000000000000000600052602160045260246000fd5b6004811061168e5761168d61164e565b5b50565b600081905061169f8261167d565b919050565b60006116af82611691565b9050919050565b6116bf816116a4565b82525050565b60006020820190506116da60008301846116b6565b92915050565b6116e98161147e565b82525050565b600060208201905061170460008301846116e0565b92915050565b61171381611612565b811461171e57600080fd5b50565b6000813590506117308161170a565b92915050565b60006020828403121561174c5761174b611459565b5b600061175a84828501611721565b91505092915050565b6000806040838503121561177a57611779611459565b5b6000611788858286016114a7565b9250506020611799858286016114a7565b9150509250929050565b7f4e487b7100000000000000000000000000000000000000000000000000000000600052601160045260246000fd5b60006117dd826114bc565b91506117e8836114bc565b9250827fffffffffffffffffffffffffffffffffffffffffffffffffffffffffffffffff0382111561181d5761181c6117a3565b5b828201905092915050565b7f4e487b7100000000000000000000000000000000000000000000000000000000600052601260045260246000fd5b6000611862826114bc565b915061186d836114bc565b92508261187d5761187c611828565b5b828204905092915050565b6000611893826114bc565b915061189e836114bc565b9250828210156118b1576118b06117a3565b5b828203905092915050565b60006060820190506118d160008301866116e0565b6118de6020830185611568565b6118eb6040830184611568565b949350505050565b7f4e487b7100000000000000000000000000000000000000000000000000000000600052602260045260246000fd5b6000600282049050600182168061193a57607f821691505b6020821081141561194e5761194d6118f3565b5b5091905056fea2646970667358221220f9b234a75f9f8b914d44409981f34a0b31f64b25c6d7576e1179841cf349a52f64736f6c634300080b0033",
  "immutableReferences": {},
  "source": "//SPDX-License-Identifier: MIT\n\npragma solidity >=0.5.0 <0.9.0;\n\nimport \"./LearningToken.sol\";\n\ncontract LearningTokenICO is LearningToken {\n  address public admin;\n  address payable public depositAddress;\n  uint tokenPrice = 0.001 ether;\n  uint public hardCap = 300 ether;\n  uint public raisedAmount;\n  uint public saleStart = block.timestamp;\n  uint public saleEnd = block.timestamp + 604800; // ICO ends in a week\n  uint public tokenTradeStart = saleEnd + 604800; // Tokens won't be available for transfer until one week after the ICO has ended\n  uint public minInvesment = 0.1 ether;\n  uint public maxInvesment = 5 ether;\n  \n  enum State {BeforeStart, Running, AfterEnd, Halted}\n  State public icoState;\n\n  event Invest(address investor, uint value, uint tokens);\n\n  constructor(address payable _depositAddress) {\n    depositAddress = _depositAddress;\n    admin = msg.sender;\n    icoState = State.BeforeStart;\n  }\n\n  receive() payable external {\n    invest();\n  }\n\n  modifier onlyAdmin() {\n    require(msg.sender == admin);\n    _;\n  }\n\n  function halt() public onlyAdmin {\n    icoState = State.Halted;\n  }\n\n  function resume() public onlyAdmin {\n    icoState = State.Running;\n  }\n\n  function setDepositAddress(address payable _newDepositAddress) public onlyAdmin {\n    depositAddress = _newDepositAddress;\n  }\n\n  function getCurrentState() public view returns (State) {\n    if (icoState == State.Halted) {\n      return State.Halted;\n    } else if (block.timestamp < saleStart) {\n      return State.BeforeStart;\n    } else if (block.timestamp >= saleStart && block.timestamp <= saleEnd) {\n      return State.Running;\n    } else {\n      return State.AfterEnd;\n    }\n  }\n\n  function invest() public payable returns (bool) {\n    require(getCurrentState() == State.Running);\n    require(msg.value >= minInvesment && msg.value <= maxInvesment);\n    raisedAmount += msg.value;\n    require(raisedAmount <= hardCap);\n\n    uint tokens = msg.value / tokenPrice;\n\n    balances[msg.sender] += tokens;\n    balances[founder] -= tokens;\n\n    depositAddress.transfer(msg.value);\n    emit Invest(msg.sender, msg.value, tokens);\n\n    return true;\n  }\n\n  function transfer(address to, uint tokens) public override returns (bool success) {\n    require(block.timestamp >= tokenTradeStart);\n    LearningToken.transfer(to, tokens);\n    return true;\n  }\n\n  function transferFrom(address from, address to, uint tokens) public override returns (bool success) {\n    require(block.timestamp >= tokenTradeStart);\n    LearningToken.transferFrom(from, to, tokens);\n    return true;\n  }\n\n  function burn() public returns (bool) {\n    require(getCurrentState() == State.AfterEnd);\n    balances[founder] = 0;\n    return true;\n  }\n}",
  "sourcePath": "/home/lorenzo/Learning/Blockchain/Practice/ERC20 Token/contracts/LearningTokenICO.sol",
  "compiler": {
    "name": "solc",
    "version": "0.8.11+commit.d7f03943.Emscripten.clang"
  },
  "schemaVersion": "3.4.5",
  "updatedAt": "2022-02-27T19:36:57.258Z",
  "devdoc": {
    "kind": "dev",
    "methods": {},
    "version": 1
  },
  "userdoc": {
    "kind": "user",
    "methods": {},
    "version": 1
  }
}